:020000040800F2
:1000000040760324910700083108000839080008E9
:100010001D0F0008470800084F08000800000000F6
:10002000000000000000000000000000E1400008A7
:100030002908000800000000A14300084D06000840
:100040005D0F000829080008290800082908000891
:1000500029080008290800082908000829080008BC
:1000600029080008290800082908000829080008AC
:10007000290800082908000829080008290800089C
:1000800029080008290800082908000800000000C5
:100090000000000000000000000000002908000827
:1000A000290800082908000829080008290800086C
:1000B000290800082908000829080008290800085C
:1000C000290800082908000829080008290800084C
:1000D00029080008B51000082908000829080008A8
:1000E0002908000829080008000000002908000865
:1000F000290800082908000829080008290800081C
:10010000290800082908000829080008290800080B
:1001100029080008290800082908000829080008FB
:1001200029080008290800082908000829080008EB
:100130002908000829080008290800080000000014
:1001400000000000000000000000000000000000AF
:1001500029080008290800082908000829080008BB
:1001600029080008290800082908000829080008AB
:10017000290800082908000829080008290800089B
:10018000290800082908000829080008290800088B
:10019000290800082908000829080008290800087B
:1001A000290800082908000829080008290800086B
:1001B00029080008000000000000000029080008CD
:1001C00029080008290800080000000000000000BD
:1001D00000000000000000002908000800000000E6
:1001E000000000000000000000000000000000000F
:1001F000000000000000000029080008290800088D
:100200002908000829080008290800080000000043
:100210002908000829080008290800080000000033
:10022000290800080000000029080008000000005C
:100230002908000829080008000000002908000813
:1002400000000000000000000000000000000000AE
:10025000000000000000000000000000000000009E
:100260000000000029080008000000000000000055
:10027000000000000000000000000000000000007E
:1002800029080008290800080000000000000000FC
:1002900000000000000000002908000829080008EC
:1002A00029080008290800082908000800000000A3
:1002B000000000000000000000000000000000003E
:1002C0000000000029080008290800082908000883
:1002D000290800082908000829080008290800083A
:1002E00029080008290800083D120008290800080C
:1002F000290800082908000829080008290800081A
:100300002908000829080008000000002908000842
:1003100029080008290800082908000829080008F9
:1003200029080008290800082908000829080008E9
:1003300029080008290800082908000829080008D9
:1003400029080008290800082908000829080008C9
:1003500029080008290800082908000829080008B9
:1003600029080008290800082908000829080008A9
:100370002908000829080008290800082908000899
:100380002908000829080008290800082908000889
:100390002908000829080008290800082908000879
:0403A0002908000820
:1003B000A3F5803A704700BF174B002B08BF134BC3
:1003C0009D46FFF7F5FF00218B460F461348144A60
:1003D000121A4EF071FF0E4B002B00D098470D4BB8
:1003E000002B00D098470020002104000D000D488C
:1003F000002802D00C48AFF300804EF0ABFF200085
:10040000290000F0FBF84EF03BFD00BF00000800A3
:10041000790700088507000840760324BC02002401
:100420003C360324000000000000000053B94AB924
:10043000002908BF00281CBF4FF0FF314FF0FF30EC
:1004400000F00CB8ADF1080C6DE904CE4EF088FB5D
:10045000DDF804E0DDE9022304B07047704700BF17
:1004600010F8012B11F8013B012A28BF9A42F7D05E
:10047000D01A7047034613F8012B002AFBD1181A33
:10048000013870470000000000000000000000007C
:1004900001F0FF01102A2BDB10F0070F08D010F835
:1004A000013B013A8B422DD010F0070F42B3F6D139
:1004B000F0B441EA012141EA014122F007047FF052
:1004C00000070023F0E80256083C85EA010586EAA9
:1004D000010685FA47F5A3FA87F586FA47F6A5FAE5
:1004E00087F68EB9EED1F0BC01F0FF0102F00702F1
:1004F00032B110F8013B013A83EA010313B1F8D19C
:100500000020704701387047002D06BF354603387C
:10051000073815F0010F07D1013015F4807F02BFB5
:10052000013015F4C03F0130F0BC0138704700BF06
:100530000348044B834202D0034B03B11847704772
:10054000BC020024BC020024000000000548064B49
:100550001B1AD90F01EBA301491002D0034B03B1C1
:1005600018477047BC020024BC02002400000000B1
:1005700010B5064C237843B9FFF7DAFF044B13B1EB
:100580000448AFF300800123237010BDBC02002497
:1005900000000000C4FD040808B5054B1BB1054967
:1005A0000548AFF30080BDE80840FFF7CFBF00BFAC
:1005B00000000000C0020024C4FD040880B485B01F
:1005C00000AF786039600B4B1B68002B02D1094BE0
:1005D000094A1A60074B1B68FB60064B1A683B68A8
:1005E0001344044A1360FB6818461437BD4680BCA8
:1005F000704700BFD80200244076032480B500AFC6
:1006000000F0C6FA4FF4167000F038FB4FF4E130FA
:1006100000F0ACFD00F0B4FC00F020FC044B1B68C3
:10062000194604484EF002FD00F01CF800BFFDE73B
:1006300000000024DCFD040880B582B000AF7860C3
:1006400039604FF47A7002F081F9FAE780B500AFB3
:1006500003F0FAF80346012B01D003F0D5FE00BFEA
:1006600080BD000080B582B002AF074B019301232B
:100670000093002382220549054801F072FF02F031
:10068000E7F900BFBD4680BDDC020024F8FD040888
:100690009506000880B584B002AF786003F01AFEBA
:1006A0000F4B01930223009300234FF480620D4906
:1006B0000D4801F056FF0D4B0193032300930023D7
:1006C00082220B490B4801F04CFF0B4B1B6818466C
:1006D00002F096F803F032FE00BF0837BD4680BD39
:1006E000E002002404FE0408FD060008E4020024E1
:1006F0000CFE04084D070008DC02002490B585B00C
:1007000000AF78600DF0F2FD04F04CFA48F088F983
:100710000C484EF0F3FC36F057F8002003F04EF88A
:10072000F86004F055F9044604F05CF903462246EB
:10073000F96805484EF07AFC052002F007F900BF81
:10074000E6E700BF14FE040828FE040880B582B066
:1007500000AF786004484EF0D1FC4FF4FA7002F01C
:10076000F5F800BFF6E700BF7CFE040880B400AFD8
:1007700000BFBD4680BC704780B400AF00BFBD461F
:1007800080BC704780B500AFFFF7F0FF00BF80BDB1
:1007900080B584B000AF00F05FF81F4BFB6019E03C
:1007A0000023BB600EE0FB681A68BB689B001A441C
:1007B000FB685968BB689B000B4412681A60BB68F1
:1007C0000133BB60FB689B68BA689A42EBD3FB6855
:1007D0000C33FB60FB68114A9342E1D3104B7B6002
:1007E00014E000233B6009E07B681A683B689B00CB
:1007F000134400221A603B6801333B607B685B68EE
:100800003A689A42F0D37B6808337B607B68054A7C
:100810009342E6D3FFF7D0FDD0180808DC1808088B
:10082000DC180808E418080880B400AF00BFFDE732
:1008300080B400AF00BFFDE780B483B000AF7B465B
:100840007B6000BFFDE780B400AF00BFFDE780B470
:1008500000AF00BFFDE7000080B500AF414BD3F80B
:100860008830404A43F47003C2F888303E4B1B681E
:100870003D4A43F08043136000BF3B4B1B68002B95
:10088000FBDA3A4B1B68394A43F001031360384BDB
:100890001B68374A23F001031360364B1B68354A47
:1008A00023F003031360304B1A682F49324B134077
:1008B0000B60324B1A683149314B13400B602D4BA2
:1008C0001A682C492F4B13400B602F4B1A682E4986
:1008D0002E4B13400B602E4B1A682D492D4B1340A5
:1008E0000B602D4B1A682C492C4B13400B602C4B82
:1008F0001A682B492B4B13400B602B4B1A682A4963
:100900002A4B13400B602A4B2A4A1A602A4B4FF499
:10091000E0021A60294B2A4A1A602A4B2A4A1A60B6
:100920002A4B294A1A602A4B00221A60294B2A4A6C
:100930001A602A4B00221A60294B00221A60294BA8
:1009400000221A60284B00221A6001204DF0C6FCDC
:1009500000F04CF800214FF000604DF019FB00BF93
:1009600080BD00BF00ED00E0004402584C44025836
:100970006804005808440258FFFFF2EAC4440258D1
:10098000FEFFFFAF0C03C0008C440258CC3F007E3A
:10099000904402588080888894440258C0EFFFC376
:1009A000D0440258FEFCFFFFF0440258888888FFBC
:1009B0000C4402580000FF14CC440258044402586E
:1009C000202000018444025820200101884402585C
:1009D000984402588044025801010100D84402584A
:1009E0009C440258A0440258A444025880B500AF69
:1009F00000F002F800BF80BD80B483B000AF0023D8
:100A00007B6000233B604B4B1B684A4A43F48033B6
:100A100013607B6801337B60464B1B6803F4003333
:100A20003B603B68002B04D17B684FF6FF7293421A
:100A3000EFD1404B1B6803F40033002B01D100BF02
:100A4000FDE73D4B1B683C4A43F0010313603B4B01
:100A50001B683A4A43F001031360394B1B68384A5C
:100A600043F080031360364B1B68354A43F08063C4
:100A70001360334B1B68324A43F000531360304B12
:100A80002F4A1B6813602E4B1B682D4A43F480537A
:100A900013602C4B1A682B492B4B13400B60294BCE
:100AA0001B68284A43F002131360284B1A68274931
:100AB000274B13400B60254B1A682449254B1343E1
:100AC0000B60254B1B68244A23F07F031360224BE5
:100AD0001B68214A43F0010313601F4B1B681E4A29
:100AE00043F060731360134B1B68124A43F080732A
:100AF000136000BF0F4B1B6803F00073002BF9D08D
:100B00000F4B1B680E4A23F0030313600C4B1B684A
:100B10000B4A43F00303136000BF094B1B6803F04B
:100B20000C030C2BF9D100BF00BF0C37BD4680BCB5
:100B3000704700BF004402584C44025868040058F3
:100B40000844025898440258F8FFFCFF0444025835
:100B500000808000C51D00018044025880B400AFB1
:100B6000BFF34F8F00BF064BDB6803F4E06204491C
:100B7000044B1343CB60BFF34F8F00BF00BFFDE7B3
:100B800000ED00E00400FA0580B500AFFFF7E6FFD6
:100B900080B485B000AF384B5B6903F40033002BA1
:100BA0001BD1BFF34F8F00BFBFF36F8F00BF324B1E
:100BB0000022C3F85022BFF34F8F00BFBFF36F8FE7
:100BC00000BF2D4B5B692C4A43F400335361BFF3E4
:100BD0004F8F00BFBFF36F8F00E000BF264B5B69F4
:100BE00003F48033002B38D1234B0022C3F8842038
:100BF000BFF34F8F00BF204BD3F88030FB60FB6802
:100C00005B0BC3F30E03BB60FB68DB08C3F3090394
:100C10007B60BB685A0143F6E07313407A68920721
:100C200015491343C1F860327B685A1E7A60002B65
:100C3000EFD1BB685A1EBA60002BE5D1BFF34F8FCE
:100C400000BF0D4B5B690C4A43F480335361BFF323
:100C50004F8F00BFBFF36F8F00E000BF064BD3F88C
:100C60009C32054A43F00403C2F89C3200BF14379B
:100C7000BD4680BC704700BF00ED00E080B483B08B
:100C800000AF0346FB800C4B1B680B4A43F0040388
:100C90001360FB88094A1360074B1B68064A43F040
:100CA00001031360044B6FF07F425A6000BF0C37A2
:100CB000BD4680BC704700BF10E000E0E8020024A1
:100CC00080B489B000AF78600023BB61194B5B68CA
:100CD0007B61194B1A687B6802FB03F33B61154B80
:100CE0009B68FB61134B9B68FB60FA68FB699A4247
:100CF000F8D0FA68FB699A4206D2FA69FB68D31AFF
:100D0000BA691344BB6107E07A69FB68D21AFB69D0
:100D10001344BA691344BB61FB68FB61BA693B6960
:100D20009A4200D2DEE700BF00BF2437BD4680BC38
:100D3000704700BF10E000E0E802002480B584B0F6
:100D400000AF0346FB800023FB6006E04FF47A709F
:100D5000FFF7B6FFFB680133FB60FB88FA689A4235
:100D6000F4D300BF00BF1037BD4680BD80B483B050
:100D700000AF7860BFF35F8F00BF0B4A7B6843F022
:100D800001035360094B5B6A084A43F480335362A2
:100D9000BFF34F8F00BFBFF36F8F00BF00BF0C3793
:100DA000BD4680BC704700BF90ED00E000ED00E064
:100DB00080B400AFBFF35F8F00BF0B4B5B6A0A4A82
:100DC00023F480335362094B5B68084A23F0010324
:100DD0005360BFF34F8F00BFBFF36F8F00BF00BFE3
:100DE000BD4680BC704700BF00ED00E090ED00E024
:100DF00080B588B000AFF860B9607A60FB7007F129
:100E0000100318464DF0DCF8FFF7D2FF7B68DBB229
:100E10003B75FB683B61FB783B7797F828303B7666
:100E20000023FB7597F82C307B7697F83030BB7633
:100E300097F83430FB760023BB75BB68DBB27B755B
:100E400007F1100318464DF0E3F84DF015F90420B2
:100E5000FFF78CFF00BF2037BD4680BD80B584B052
:100E600004AF01230393012302930023019303237F
:100E70000093002300220F210020FFF7B9FF012378
:100E80000393012302930023019303230093002380
:100E9000012210214FF00050FFF7AAFF0023039317
:100EA00001230293012301930323009300230222D1
:100EB00013214FF01050FFF79BFF012303930123F1
:100EC00002930023019303230093002303220E21A6
:100ED0004FF04050FFF78CFF002303930023029351
:100EE00000230193032300930023042219214FF0D0
:100EF000C040FFF77DFF01230393012302930023EA
:100F00000193032300930023052218214FF0404052
:100F1000FFF76EFF00BFBD4680BD000080B500AF8B
:100F2000002208210A484DF04FF90A484EF0E6F831
:100F30004FF47A70FFF702FF07484EF0DFF84FF4E6
:100F40007A70FFF7FBFEFFF71FFE00BF80BD00BFFA
:100F5000000002588CFE0408A0FE040880B500AF13
:100F6000054B7F221A604DF0EFF9082103484DF040
:100F7000A6F900BF80BD00BF00300050000002583D
:100F800080B500AF4FF470604CF048F84FF47060DB
:100F90004CF044F804230122012110484DF07AF866
:100FA0000423012200210D484DF0C1F8082301223D
:100FB00001210A484DF06EF808230122002107485C
:100FC0004DF0B5F80122042104484DF0FDF801224E
:100FD000082102484DF0F8F800BF80BD000002581B
:100FE00080B483B000AF786000BFFDE780B483B009
:100FF00000AF78604FF0FF3318460C37BD4680BC19
:10100000704780B483B000AF786039603B684FF4BC
:1010100000525A60002318460C37BD4680BC70470A
:1010200080B483B000AF7860012318460C37BD460A
:1010300080BC704780B485B000AFF860B9607A605A
:10104000002318461437BD4680BC704780B485B075
:1010500000AFF860B9607A60002318461437BD46C7
:1010600080BC704780B586B000AFF860B9607A6028
:1010700000237B6113E000BF40F206710C484DF085
:101080007EFB0346002BF7D07B69BA6813441B78BC
:10109000194607484DF052FB7B6901337B617A6941
:1010A0007B689A42E7DB7B6818461837BD4680BDEF
:1010B0000010014080B582B000AF274927484DF0AD
:1010C000DEFB0346002B3DD024484DF048FB034691
:1010D000FB71234B1B881BB2002B33DB204B1B887F
:1010E00003F48043002B0ED0FB790A2B03D01C4B5A
:1010F00000221A8026E01A4B1A881A4B13439AB220
:10110000174B1A801EE0FB790D2B07D1144B1B885F
:1011100043F480439AB2124B1A8013E0104B1B88A1
:10112000C3F30D031049FA79CA540D4B1B880133E0
:101130009AB20B4B1A800A4B1B88C72B02D9084B5B
:1011400000221A8040F2037104484DF036FB00BFC4
:101150000837BD4680BD00BF0500050700100140EF
:10116000B40300240080FFFFEC02002480B582B0AD
:1011700000AF78604FF470604BF050FF4FF4706038
:101180004BF04CFF41F204104BF048FF4FF400725B
:10119000072128484DF032F84FF480620721254896
:1011A0004DF02CF84FF400730122022121484CF03D
:1011B00071FF4FF40073032200211E484CF0B7FF6B
:1011C0004FF48063012202211A484CF063FF4FF470
:1011D00080630322002117484CF0A9FF16484DF008
:1011E000BFF8796814484DF055F9002112484DF0C8
:1011F00049FA002110484DF029FA00210E484DF01F
:1012000009FA08210C484DF06DFA04210A484DF006
:101210007FFA052108484DF012FB03220321252007
:101220004CF036FE04484DF04EFA00BF0837BD467C
:1012300080BD00BF000002580010014080B500AF23
:10124000012108484DF04FFB0346012B08D1064B06
:101250001B680133044A1360012102484DF076FBFC
:1012600000BF80BD00F00040B803002480B485B00A
:1012700000AF0346FB80FB88EFF31083BB60BB68C5
:10128000FB6072B600BF084BFA8892B25A80FB68C6
:1012900003F00103002B01D162B600BF00BF143779
:1012A000BD4680BC704700BFFEFF0F6080B485B0B4
:1012B00000AF0346FB80FB88EFF31083BB60BB6885
:1012C000FB6072B600BF084BFA8892B21A80FB68C6
:1012D00003F00103002B01D162B600BF00BF143739
:1012E000BD4680BC704700BFFEFF0F6080B485B074
:1012F00000AF03460A46FB801346BB80EFF3108322
:10130000BB60BB68FB6072B600BF094AFB881380F4
:10131000074ABB885380FB6803F00103002B01D10F
:1013200062B600BF00BF1437BD4680BC704700BF27
:10133000FEFF0F6080B483B000AF78607B68013B34
:10134000FDD17B6000BF0C37BD4680BC70470000FC
:1013500080B400AF034B044A12891A8000BFBD4617
:1013600080BC7047FEFF0F60BC03002480B582B0D4
:1013700000AF03460A46FB801346BB80124B5B89D5
:101380001846FFF793FFFB881B0A9BB21846FFF72E
:101390006DFFFB88DBB29BB21846FFF767FF0A4B75
:1013A0009B891846FFF782FFBB881B0A9BB2184631
:1013B000FFF75CFFBB88DBB29BB21846FFF756FF16
:1013C00000BF0837BD4680BDBC03002480B584B093
:1013D00000AF0346FB710023FB81734B9B79012B0C
:1013E00035D1FB79072B2FD0072B30DC062B28D0EB
:1013F000062B2CDC052B21D0052B28DC042B1AD046
:10140000042B24DC032B13D0032B20DC022B0CD069
:10141000022B1CDC002B02D0012B03D017E006238B
:10142000FB7114E00723FB7111E00423FB710EE054
:101430000523FB710BE00123FB7108E00023FB7126
:1014400005E00323FB7102E00223FB7100BFFB797F
:10145000072B37D0072B3BDC062B2ED0062B37DC97
:10146000052B25D0052B33DC042B1CD0042B2FDCC3
:10147000032B13D0032B2BDC022B0AD0022B27DCEF
:10148000002B24D0012B23D1FB8943F08003FB8167
:101490001EE0FB8943F04003FB8119E0FB8943F028
:1014A000C003FB8114E0FB8943F02003FB810FE0C4
:1014B000FB8943F06003FB810AE0FB8943F0A00352
:1014C000FB8105E0FB8943F0E003FB8100E000BF06
:1014D000FB8943F00803FB81FB8919463620FFF79F
:1014E00005FFFB8903F02003002B10D02E4B1A8838
:1014F0002D4B5B889A421AD22B4B1B88BB812A4BFF
:101500005A88294B1A80284ABB8953800FE0264B02
:101510001A88254B5B889A4209D9234B1B88BB81CB
:10152000214B5A88204B1A801F4ABB8953801E4B7F
:101530005B891846FFF7BAFE0020FFF797FE0020F0
:10154000FFF794FE184B1B88013B1B129BB21846F9
:10155000FFF78CFE144B1B88013B9BB2DBB29BB2A6
:101560001846FFF783FE104B9B891846FFF79EFE37
:101570000020FFF77BFE0020FFF778FE0A4B5B8818
:10158000013B1B129BB21846FFF770FE064B5B88AF
:10159000013B9BB2DBB29BB21846FFF767FE00BF70
:1015A0001037BD4680BD00BFBC03002480B582B0AB
:1015B00000AF0346FB71184AFB799371FB79002B4E
:1015C00011D1154B2C221A81134B2A225A81124B0E
:1015D0002B229A81104B4FF4A0721A800E4B4FF4BD
:1015E000F0725A8010E00C4B2C221A810A4B2A22EE
:1015F0005A81094B2B229A81074B4FF4F0721A80C3
:10160000054B4FF4A0725A800020FFF7DFFE00BFA9
:101610000837BD4680BD00BFBC03002480B59EB026
:1016200000AF4FF460604BF0F9FC00233B620023F5
:101630007B620023BB620023FB626E233B630023BB
:101640007B630F23BB6300237B600023BB6000230D
:10165000FB6000233B6178237B610023BB610F2388
:10166000FB6107F13C0318464DF080F90023FB6352
:101670000023FB6601233B6600237B660023FB659A
:101680000123BB6500237B6500233B650023FB64CE
:101690001023BB6400237B6400233B640023BB66F0
:1016A00007F120033B673B1D7B6707F13C031846AE
:1016B0004DF092F900204DF03BFA00BF7837BD465F
:1016C00080BD000080B500AF40F603704BF0A6FC73
:1016D00040F604704BF0A2FC40F603704BF09EFC09
:1016E00040F603704BF09AFC40F601704BF096FC0C
:1016F0004FF470604BF092FC40F603704BF08EFCA0
:1017000040F604704BF08AFC0223012201216A4852
:101710004CF0C0FC02230222002167484CF007FD78
:101720004FF480730122012164484CF0B3FC4FF464
:1017300080730222002161484CF0F9FC80220C21C8
:101740005F484CF05BFD8023012202215C484CF095
:10175000A1FC80230222002159484CF0E8FC082219
:101760000C2158484CF04AFD08230122022155481B
:101770004CF090FC08230222002152484CF0D7FC88
:1017800020220C214E484CF039FD20230122022159
:101790004B484CF07FFC20230222002148484CF0AB
:1017A000C6FC10220C2146484CF028FD10230122D3
:1017B000022143484CF06EFC1023022200214048D5
:1017C0004CF0B5FC4CF203720C213D484CF016FD78
:1017D0004CF203730122022139484CF05BFC4CF2BD
:1017E00003730222002136484CF0A1FC4FF68072B0
:1017F0000C2134484CF002FD4FF680730122022187
:1018000030484CF047FC4FF68073022200212D48EF
:101810004CF08DFCFFF702FF2B48FFF78BFD0122F8
:101820004FF4807125484CF0CFFC0A20FFF786FA70
:1018300000224FF4807121484CF0C6FC3220FFF7A3
:101840007DFA01224FF480711C484CF0BDFCC82089
:10185000FFF774FA1D4B47F296729A801B4B9B88D8
:1018600019461B484DF0E2FB00F0B2F8194B1B681B
:10187000184A23F00F031360164B1B68154A23F414
:101880007F431360134B1B68124A43F0030313603A
:10189000104B1B680F4A43F4407313600020FFF79E
:1018A00085FE0122022104484CF08EFC4FF6FF70A9
:1018B00000F012F800BF80BD00040258000002587A
:1018C000000C025800100258FFFF0100BC03002466
:1018D000B4FE04080441005280B584B000AF034652
:1018E000FB800023FB60114B1B88BB600F4B5B88A8
:1018F0001A46BB6802FB03F3BB6000210020FFF720
:1019000035FDFFF725FD0023FB6005E0084AFB8855
:101910005380FB680133FB60FA68BB689A42F5D3D9
:1019200000BF00BF1037BD4680BD00BFBC03002410
:10193000FEFF0F6090B585B000AF04460846114623
:101940001A462346FB800346BB800B467B8013462A
:101950003B807A88FB88D31A9BB201337B813A881B
:10196000BB88D31A9BB201333B810023FB8123E068
:10197000BA88FB8913449AB2FB8811461846FFF7D0
:10198000F5FCFFF7E5FC0023BB810EE0FB897A89BB
:1019900003FB02F2BB8913445B003A6A13440B4A0F
:1019A0001B885380BB890133BB81BA897B899A42EA
:1019B000ECD3FB890133FB81FA893B899A42D7D367
:1019C00000BF00BF1437BD4690BD00BFFEFF0F60D3
:1019D00080B500AF1120FFF769FC7820FFF7AEF962
:1019E0003620FFF763FC4820FFF740FC3A20FFF762
:1019F0005DFC5520FFF73AFCF020FFF757FCC320B1
:101A0000FFF734FCF020FFF751FC9620FFF72EFC87
:101A1000B420FFF74BFC0120FFF728FCB620FFF7AE
:101A200045FC0A20FFF722FCA220FFF71FFCB7208D
:101A3000FFF73CFCC620FFF719FCB920FFF736FC86
:101A40000220FFF713FCE020FFF710FCC020FFF797
:101A50002DFC8020FFF70AFC1620FFF707FCC120B1
:101A6000FFF724FC1920FFF701FCC220FFF71EFC42
:101A7000A720FFF7FBFBC520FFF718FC1620FFF798
:101A8000F5FBE820FFF712FC4020FFF7EFFB8A2070
:101A9000FFF7ECFB0020FFF7E9FB0020FFF7E6FB78
:101AA0002920FFF7E3FB1920FFF7E0FBA520FFF754
:101AB000DDFB3320FFF7DAFBE020FFF7F7FBF02038
:101AC000FFF7D4FB0720FFF7D1FB0D20FFF7CEFB7C
:101AD0000420FFF7CBFB0520FFF7C8FB1420FFF71E
:101AE000C5FB3620FFF7C2FB5420FFF7BFFB4C209D
:101AF000FFF7BCFB3820FFF7B9FB1320FFF7B6FB5D
:101B00001420FFF7B3FB2E20FFF7B0FB3420FFF7C4
:101B1000ADFBE120FFF7CAFBF020FFF7A7FB102089
:101B2000FFF7A4FB1420FFF7A1FB0E20FFF79EFB9D
:101B30000C20FFF79BFB0820FFF798FB3520FFF7F1
:101B400095FB4420FFF792FB4C20FFF78FFB2620EC
:101B5000FFF78CFB1020FFF789FB1220FFF786FBB5
:101B60002C20FFF783FB3220FFF780FBF020FFF7EC
:101B70009DFB3C20FFF77AFBF020FFF797FB6920E5
:101B8000FFF774FB7820FFF7D9F82120FFF78EFBD1
:101B90002920FFF78BFB00BF80BD80B483B000AF6E
:101BA00078607B6803F108027B685A607B684FF0BD
:101BB000FF329A607B6803F108027B68DA607B6819
:101BC00003F108027B681A617B6800221A6000BF7B
:101BD0000C37BD4680BC704780B483B000AF7860DE
:101BE0007B6800221A6100BF0C37BD4680BC70477D
:101BF00080B485B000AF786039607B685B68FB605B
:101C00003B68FA685A60FB689A683B689A60FB68B0
:101C10009B683A685A60FB683A689A603B687A68E1
:101C20001A617B681B685A1C7B681A6000BF1437F6
:101C3000BD4680BC704780B485B000AF7860396025
:101C40003B681B68BB60BB68B3F1FF3F03D17B6897
:101C50001B69FB600CE07B680833FB6002E0FB68FB
:101C60005B68FB60FB685B681B68BA689A42F6D2E7
:101C7000FB685A683B685A603B685B683A689A60E0
:101C80003B68FA689A60FB683A685A603B687A6811
:101C90001A617B681B685A1C7B681A6000BF143786
:101CA000BD4680BC704780B485B000AF78607B686B
:101CB0001B69FB607B685B687A6892689A607B68E6
:101CC0009B687A6852685A60FB685B687A689A42D7
:101CD00003D17B689A68FB685A607B6800221A61AE
:101CE000FB681B685A1EFB681A60FB681B68184675
:101CF0001437BD4680BC704780B586B000AF7860B1
:101D0000396001237B617B683B613B69002B0DD10E
:101D10004FF0500372B683F31188BFF36F8FBFF398
:101D20004F8F62B6FB6000BF00BFFDE73B69002B31
:101D30005DD03B69DB6B002B59D03B691A6C3B696A
:101D4000DB6B0021A3FB0223002B00D001210B46FB
:101D5000002B4CD102F0BEFA3B691A683B69DB6B81
:101D60003969096C01FB03F31A443B699A603B69CA
:101D700000229A633B691A683B695A603B691A689A
:101D80003B69DB6B013B3969096C01FB03F31A44C6
:101D90003B69DA603B69FF2283F844203B69FF22FC
:101DA00083F845203B68002B14D13B691B69002B4D
:101DB0001AD03B691033184601F096FA0346002BFF
:101DC00012D0174B4FF080521A60BFF34F8FBFF302
:101DD0006F8F09E03B6910331846FFF7DEFE3B6961
:101DE00024331846FFF7D9FE02F0A8FA01E00023D9
:101DF0007B617B69002B0DD14FF0500372B683F3EA
:101E00001188BFF36F8FBFF34F8F62B6BB6000BF07
:101E100000BFFDE77B6918461837BD4680BD00BF8F
:101E200004ED00E080B58AB002AFF860B9601346F7
:101E3000FB710023FB61FB68002B2ED00021BA68E8
:101E4000FB68A3FB0223002B00D001210B46002BD3
:101E500023D1FB68BA6802FB03F313F1550F1CD8BA
:101E6000FB68BA6802FB03F3BB61BB6954331846D5
:101E700002F0F4FBF861FB69002B1FD0FB697B616A
:101E80007B6954337B61FA79FB69009313467A6965
:101E9000B968F86800F017F810E0FB69002B0DD165
:101EA0004FF0500372B683F31188BFF36F8FBFF307
:101EB0004F8F62B63B6100BF00BFFDE7FB6918466C
:101EC0002037BD4680BD80B584B000AFF860B960F2
:101ED0007A60FB70BB68002B03D1BB69BA691A60DA
:101EE00002E0BB697A681A60BB69FA68DA63BB69A9
:101EF000BA681A640121B869FFF7FEFEBB69FA7877
:101F000083F85020BB6900229A6400BF1037BD4699
:101F100080BD000080B58CB000AFF860B9607A6019
:101F20000023FB62FB68BB62BB6A002B0DD14FF044
:101F3000500372B683F31188BFF36F8FBFF34F8FD7
:101F400062B63B6200BF00BFFDE7BB68002B03D158
:101F5000BB6A1B6C002B01D1012300E00023002B86
:101F60000DD14FF0500372B683F31188BFF36F8F1A
:101F7000BFF34F8F62B6FB6100BF00BFFDE701F00A
:101F800063FC0346002B02D17B68002B01D10123A7
:101F900000E00023002B0DD14FF0500372B683F305
:101FA0001188BFF36F8FBFF34F8F62B6BB6100BF65
:101FB00000BFFDE702F08EF9BB6A9B6B7B627B6A18
:101FC000002B1FD0B968B86A00F0F6F87B6A5A1E79
:101FD000BB6A9A63BB6A1B69002B0FD0BB6A1033C4
:101FE000184601F081F90346002B07D03C4B4FF017
:101FF00080521A60BFF34F8FBFF36F8F02F09EF9CC
:10200000012369E07B68002B03D102F097F90023DC
:1020100062E0FB6A002B06D107F11003184601F0BD
:102020003FFA0123FB6202F089F900F05FFD02F044
:1020300051F9BB6A93F844305BB2B3F1FF3F03D16F
:10204000BB6A002283F84420BB6A93F845305BB238
:10205000B3F1FF3F03D1BB6A002283F8452002F0B1
:102060006DF93A1D07F110031146184601F02EFADA
:102070000346002B23D1B86A00F023F90346002B56
:1020800017D0BB6A24337A681146184601F0BCF8B1
:10209000B86A00F0B7F800F073FD0346002B89D151
:1020A0000F4B4FF080521A60BFF34F8FBFF36F8F0B
:1020B00080E7B86A00F0A6F800F062FD7AE7B86A37
:1020C00000F0A0F800F05CFDB86A00F0FAF80346F2
:1020D000002B3FF46FAF002318463037BD4680BD5C
:1020E00004ED00E080B586B000AFF860B9607A60BA
:1020F00000237B61FB689B6B3B61FB681B6C002BC7
:102100000DD1FB681B68002B4DD1FB689B681846FE
:1021100001F0B8FB7861FB6800229A6043E07B68BD
:10212000002B19D1FB685868FB681B6C1A46B9680C
:102130004DF03FF9FB685A68FB681B6C1A44FB685A
:102140005A60FB685A68FB689B689A422BD3FB680D
:102150001A68FB685A6026E0FB68D868FB681B6C4D
:102160001A46B9684DF025F9FB68DA68FB681B6C04
:102170005B421A44FB68DA60FB68DA68FB681B683C
:102180009A4207D2FB689A68FB681B6C5B421A4450
:10219000FB68DA607B68022B05D13B69002B02D01B
:1021A0003B69013B3B613B695A1CFB689A637B6955
:1021B00018461837BD4680BD80B582B000AF786044
:1021C00039607B681B6C002B18D07B68DA687B68F1
:1021D0001B6C1A447B68DA607B68DA687B689B68F2
:1021E0009A4203D37B681A687B68DA607B68D96897
:1021F0007B681B6C1A4638684DF0DBF800BF083767
:10220000BD4680BD80B584B000AF786002F062F852
:102210007B6893F84530FB731EE07B689B6C002B5A
:1022200008D0786800F0E8F80346002B10D001F0E1
:10223000B9F90DE07B685B6A002B12D07B68243310
:10224000184601F051F80346002B01D001F0AAF91D
:10225000FB7B013BDBB2FB7397F90F30002BDCDC1F
:1022600000E000BF7B68FF2283F8452002F066F89B
:1022700002F030F87B6893F84430BB7311E07B6860
:102280001B69002B12D07B681033184601F02CF824
:102290000346002B01D001F085F9BB7B013BDBB28B
:1022A000BB7397F90E30002BE9DC00E000BF7B68C0
:1022B000FF2283F8442002F041F800BF1037BD46EA
:1022C00080BD80B584B000AF786002F003F87B6811
:1022D0009B6B002B02D10123FB6001E00023FB601C
:1022E00002F02CF8FB6818461037BD4680BD000090
:1022F00080B487B000AF7860396000233B617B68B1
:10230000002B0DD14FF0500372B683F31188BFF349
:102310006F8FBFF34F8F62B6FB6000BF00BFFDE75A
:102320003B68002B24D000237B611EE0174A7B69A9
:10233000DB0013445B687A689A4205D17B69DB0055
:10234000124A13443B6113E03B69002B0AD10F4A48
:102350007B6952F83330002B04D17B69DB000B4AD8
:1023600013443B617B6901337B617B69072BDDD9BA
:102370003B69002B05D03B693A681A603B697A6873
:102380005A6000BF1C37BD4680BC7047CC03002498
:1023900080B586B000AFF860B9607A60FB687B6199
:1023A00001F098FF7B6993F844305BB2B3F1FF3FD3
:1023B00003D17B69002283F844207B6993F8453080
:1023C0005BB2B3F1FF3F03D17B69002283F8452064
:1023D00001F0B4FF7B699B6B002B06D17B69243332
:1023E0007A68B968184600F037FF7869FFF70AFF86
:1023F00000BF1837BD4680BD80B58AB000AF786099
:102400007B689B6C3B6200237B623B6A002B0DD197
:102410004FF0500372B683F31188BFF36F8FBFF391
:102420004F8F62B67B6100BF00BFFDE73B6A9A6BCE
:102430003B6ADB6B9A420DD34FF0500372B683F3C5
:102440001188BFF36F8FBFF34F8F62B63B6100BF40
:1024500000BFFDE73B6A9A6B3B6ADB6B9A423FD257
:102460003B6A93F84530FB773B1D00221946386ADA
:10247000FFF738FE786297F91F30B3F1FF3F0ED1B6
:102480003B6A5B6A002B2BD03B6A2433184600F072
:102490002BFF0346002B23D001237B6220E000F0BA
:1024A00087FCB86197F91F30BA699A4218D997F931
:1024B0001F307F2B0DD14FF0500372B683F311887C
:1024C000BFF36F8FBFF34F8F62B6FB6000BF00BFDB
:1024D000FDE7FB7F0133DBB25AB23B6A83F845204C
:1024E0007B6A18462837BD4680BD80B58AB004AFE8
:1024F000F860B9607A603B607B689B00184602F028
:10250000ADF838613B69002B13D0602002F0A6F8CB
:1025100078617B69002B08D06022002178694CF03B
:10252000CBFE7B693A691A6305E0386902F0D4F999
:1025300001E000237B617B69002B0DD00023039316
:102540007B6902937B6A01933B6A00933B687A68DC
:10255000B968F86800F028F87B6918461837BD4656
:1025600080BD80B588B002AFF860B9607A603B602A
:102570007B6A01933B6A00933B687A68B968F868A4
:10258000FFF7B3FF38613B69002B05D0386900F0D5
:102590009FF801237B6102E04FF0FF337B617B6991
:1025A00018461837BD4680BD80B588B000AFF860CA
:1025B000B9607A603B603B6B186B7B689B001A4686
:1025C000A5214CF079FE3B6B1A6B79686FF04043A4
:1025D0000B449B001344BB61BB6923F00703BB6141
:1025E000BB6903F00703002B0DD04FF0500372B608
:1025F00083F31188BFF36F8FBFF34F8F62B67B6198
:1026000000BF00BFFDE7BB68002B1ED00023FB61AD
:1026100012E0BA68FB69134419783A6BFB691344FA
:1026200034330A461A70BA68FB6913441B78002BCE
:1026300006D0FB690133FB61FB690F2BE9D900E090
:1026400000BF3B6B002283F84320BB6A1F2B0DD9D0
:102650004FF0500372B683F31188BFF36F8FBFF34F
:102660004F8F62B63B6100BF00BFFDE7BB6A1F2B07
:1026700001D91F23BB623B6BBA6ADA623B6BBA6A51
:10268000DA643B6B04331846FFF7A6FA3B6B18334A
:102690001846FFF7A1FA3B6B3A6B1A61BB6AC3F1AC
:1026A00020023B6B9A613B6B3A6B5A623A68F9685D
:1026B000B86901F0B1FC02463B6B1A60FB6A002B63
:1026C00002D0FB6A3A6B1A6000BF2037BD4680BD5E
:1026D00080B584B000AF786001F0FCFD414B1B6811
:1026E0000133404A1360404B1B68002B09D13E4A1E
:1026F0007B6813603B4B1B68012B10D100F0D6FFA9
:102700000DE03A4B1B68002B09D1374B1B68DA6A86
:102710007B68DB6A9A4202D8334A7B681360344B89
:102720001B680133324A1360314B1A687B685A6464
:102730007B68DB6A01229A402E4B1B6813432D4AAB
:1027400013607B68DA6A2C4913469B0013449B0094
:102750000B4404331B68FB607B68FA689A60FB6873
:102760009A687B68DA60FB689B687A6804325A6012
:102770007B681A1DFB689A607B68DA6A13469B00C7
:1027800013449B001C4A1A447B685A617B68DA6ACE
:10279000194913469B0013449B000B441B687A683D
:1027A000D26A591C144813469B0013449B000344EF
:1027B000196001F0C3FD0D4B1B68002B0ED00A4BB6
:1027C0001B68DA6A7B68DB6A9A4207D20B4B4FF0D0
:1027D00080521A60BFF34F8FBFF36F8F00BF103767
:1027E000BD4680BD000700240C0400240C07002413
:1027F0001C070024080700241004002404ED00E056
:1028000080B586B000AF786000233B6101F062FDC7
:102810007B68002B03D1434B1B687B6101E07B6825
:102820007B617B6904331846FFF73DFA0346002BB2
:1028300015D17B69DA6A3C4913469B0013449B001F
:102840000B441B68002B0AD17B69DB6A012202FA68
:1028500003F3DA43354B1B681340344A13607B693A
:102860009B6A002B04D07B6918331846FFF71BFACC
:102870002F4B1B6801332E4A13602A4B1B687A6961
:102880009A4202D10123FB6001E00023FB60294B47
:102890001B68002B10D0FB68002B0DD07B69043324
:1028A00019462548FFF7A4F9244B1B680133234A36
:1028B000136001233B6106E0214B1B68013B204A6A
:1028C000136000F0A7FF01F039FD3B69012B02D036
:1028D000786900F08FFF174B1B68002B1ED0114B3F
:1028E0001B687A699A4219D1164B1B68002B0DD0D0
:1028F0004FF0500372B683F31188BFF36F8FBFF3AD
:102900004F8F62B6BB6000BF00BFFDE70E4B4FF0BC
:1029100080521A60BFF34F8FBFF36F8F00BF18371D
:10292000BD4680BD0C0400241004002408070024C8
:102930001C0700240C070024D4060024E806002409
:10294000000700242807002404ED00E080B584B0CF
:1029500000AF78600023FB607B68002B1AD000F08A
:10296000C5F8144B1B68012B0DD04FF0500372B605
:1029700083F31188BFF36F8FBFF34F8F62B6BB60D5
:1029800000BF00BFFDE70021786801F027F800F0E4
:10299000F7F8F860FB68002B07D1074B4FF0805227
:1029A0001A60BFF34F8FBFF36F8F00BF1037BD4664
:1029B00080BD00BF2807002404ED00E080B58AB088
:1029C00002AF0123FB6100233B6100237B6111E027
:1029D0001C4A7B69134419783A467B6913440A46BA
:1029E0001A703A467B6913441B78002B06D07B692A
:1029F00001337B617B690F2BEADD00E000BF002320
:102A0000BB6115E0104B3B61BB699B000F4A13444F
:102A10003946019300230093002382223869FFF78F
:102A2000A0FDF861FB69002B06D0BB690133BB61D7
:102A3000BB69002BE6DD00E000BFFB6918462037CC
:102A4000BD4680BDC0FE0408BD3500082407002433
:102A500080B584B000AFFFF7B1FFF860FB68012BD1
:102A600002D101F03DF8F860FB68012B1BD14FF05B
:102A7000500372B683F31188BFF36F8FBFF34F8F8C
:102A800062B6BB6000BF144B4FF0FF321A60134BAD
:102A900001221A60124B00221A60124B00221A60A7
:102AA00001F048FB11E0FB68B3F1FF3F0DD14FF09F
:102AB000500372B683F31188BFF36F8FBFF34F8F4C
:102AC00062B67B6000BF00BFFDE7074B1B6800BF1D
:102AD0001037BD4680BD00BF200700240C0700242E
:102AE00004070024B8030024A409050880B400AF3B
:102AF000044B1B680133034A136000BFBD4680BC12
:102B0000704700BF2807002480B485B000AF0023C1
:102B1000BB6001237B60154B1B687A689A4201D227
:102B20000123BB60124B1B68DB6A002B02D0002321
:102B3000FB6014E00F4B1B68012B02D90023FB60E4
:102B40000DE0BB68002B02D00023FB6007E00A4BBE
:102B50001B68FB60094B1B68FA68D31AFB60FB68B3
:102B600018461437BD4680BC704700BF08070024D4
:102B70000C0400241004002420070024040700246F
:102B800080B588B000AF0023FB610023BB6101F07A
:102B9000A1FB00233B61764B1B68002B0DD14FF04E
:102BA000500372B683F31188BFF36F8FBFF34F8F5B
:102BB00062B63B6000BF00BFFDE76D4B1B68013B89
:102BC0006B4A13606A4B1B68002B40F0CA80694B4C
:102BD0001B68002B00F0C5808EE0674BDB68DB686C
:102BE000FB61FB699B6AFB60FB69DB69FA69126A3E
:102BF0009A60FB691B6AFA69D2695A60FB685A6875
:102C0000FB6918339A4203D1FB691A6AFB685A6060
:102C1000FB6900229A62FB681B685A1EFB681A60F7
:102C2000FB695B69BB60FB699B68FA69D2689A6063
:102C3000FB69DB68FA6992685A60BB685A68FB698D
:102C400004339A4203D1FB69DA68BB685A60FB69B6
:102C500000225A61BB681B685A1EBB681A60FB6978
:102C6000DB6A01229A40454B1B681343434A1360B9
:102C7000FB69DA6A424913469B0013449B000B44EC
:102C800004331B687B60FB697A689A607B689A688A
:102C9000FB69DA607B689B68FA6904325A60FB69F9
:102CA0001A1D7B689A60FB69DA6A13469B0013441D
:102CB0009B00334A1A44FB695A61FB69DA6A30495E
:102CC00013469B0013449B000B441B68FA69D26AAD
:102CD000591C2B4813469B0013449B000344196066
:102CE000FB69DA6A274B1B68DB6A9A4204D9264AD9
:102CF0003B69012142F823101F4B1B68002B7FF416
:102D00006CAFFB69002B01D000F084FD1F4B1B68EA
:102D10007B617B69002B12D000F0B6F80346002BD4
:102D200004D0194A3B69012142F823107B69013B19
:102D30007B617B69002BEFD1144B00221A60124A91
:102D40003B6952F82330002B0BD00123BB610D4BA4
:102D50001B680F4B4FF080521A60BFF34F8FBFF3C9
:102D60006F8F01F0EBFABB6918462037BD4680BD76
:102D70002807002400070024C006002408070024B8
:102D8000100400240C04002414070024100700245D
:102D900004ED00E080B483B000AF044B1B687B609F
:102DA0007B6818460C37BD4680BC7047040700247A
:102DB00080B400AF024B1B681846BD4680BC70470C
:102DC0000007002480B586B000AF78602A4B1B68EE
:102DD0007A6813447B61294B1B687A699A420DD942
:102DE0004FF0500372B683F31188BFF36F8FBFF3B8
:102DF0004F8F62B63B6100BF00BFFDE71F4B1B68F2
:102E00007A699A422ED11E4B1B68002B0DD14FF0D0
:102E1000500372B683F31188BFF36F8FBFF34F8FE8
:102E200062B6FB6000BF00BFFDE77B68002B0DD1E1
:102E30004FF0500372B683F31188BFF36F8FBFF367
:102E40004F8F62B6BB6000BF00BFFDE701F042FAE2
:102E50000C4B1B6801330B4A136001F06FFA7B685F
:102E6000013B7B60044B1A687B681344024A136081
:102E700000BF1837BD4680BD04070024200700248A
:102E8000280700241007002480B58AB000AF002373
:102E90007B62804B1B68002B40F0F1807E4B1B68EF
:102EA00001333B627C4A3B6A13603B6A002B23D1AF
:102EB0007A4B1B681B68002B0DD04FF0500372B685
:102EC00083F31188BFF36F8FBFF34F8F62B67B60C0
:102ED00000BF00BFFDE7714B1B68FB61704B1B68B7
:102EE0006E4A13606E4AFB6913606E4B1B680133B8
:102EF0006C4A136000F08EFC6B4B1B683A6A9A4276
:102F0000C0F0A880654B1B681B68002B04D1664B82
:102F10004FF0FF321A609DE0604B1B68DB68DB6896
:102F2000BB61BB695B687B613A6A7B699A4203D289
:102F30005D4A7B6913608DE0BB695B693B61BB697E
:102F40009B68BA69D2689A60BB69DB68BA699268A3
:102F50005A603B695A68BB6904339A4203D1BB6922
:102F6000DA683B695A60BB6900225A613B691B6899
:102F70005A1E3B691A60BB699B6A002B1ED0BB6955
:102F80009B6AFB60BB69DB69BA69126A9A60BB69BC
:102F90001B6ABA69D2695A60FB685A68BB69183300
:102FA0009A4203D1BB691A6AFB685A60BB69002266
:102FB0009A62FB681B685A1EFB681A60BB69DB6A71
:102FC00001229A40394B1B681343384A1360BB698E
:102FD000DA6A374913469B0013449B000B440433C1
:102FE0001B68BB60BB69BA689A60BB689A68BB69BA
:102FF000DA60BB689B68BA6904325A60BB691A1D03
:10300000BB689A60BB69DA6A13469B0013449B0055
:10301000274A1A44BB695A61BB69DA6A24491346D4
:103020009B0013449B000B441B68BA69D26A591C6D
:103030001F4813469B0013449B0003441960BB695F
:10304000DA6A1C4B1B68DB6A9A427FF65BAF01238E
:103050007B6257E7174B1B68DA6A154913469B00DA
:1030600013449B000B441B68012B01D901237B6295
:10307000114B1B68002B07D001237B6204E00F4B30
:103080001B6801330D4A13607B6A18462837BD461A
:1030900080BD00BF2807002404070024B8060024D0
:1030A000BC06002418070024200700240807002479
:1030B000100400240C04002414070024100700242A
:1030C00080B588B000AF484B1B68002B03D0474B3E
:1030D00001221A6083E0454B00221A60444B1B68B2
:1030E000444A1360434B1A68434B1B689A4209D900
:1030F000404B1A68404B1B68D11A404B1B685A6DF5
:103100000A445A653B4B1B683B4A13603B4B1B68A8
:103110001B6BFB614FF0A533BB61FB691B68BA6990
:103120009A4211D1FB6904331B68BA699A420BD1E8
:10313000FB6908331B68BA699A4205D1FB690C33F5
:103140001B68BA699A4209D02C4B1B6834337B61E7
:103150002A4B1B6879691846FDF76EFA284B1B68E5
:10316000BB60BB68B3FA83F3FB71FB79C3F11F0348
:103170003B6124493A6913469B0013449B000B446E
:103180001B68002B0DD14FF0500372B683F31188EA
:10319000BFF36F8FBFF34F8F62B63B6000BF00BFBE
:1031A000FDE73A6913469B0013449B00154A1344FC
:1031B000FB60FB685B685A68FB685A60FB685A688A
:1031C000FB6808339A4203D1FB68DA68FB685A60EF
:1031D000FB685B68DB68094A1360084B1B6800BF2B
:1031E0002037BD4680BD00BF2807002414070024F7
:1031F000B8030024300700242C0700240C0400240A
:10320000080700241004002480B584B000AF786063
:1032100039607B68002B0DD14FF0500372B683F3F9
:103220001188BFF36F8FBFF34F8F62B6FB6000BF93
:1032300000BFFDE7074B1B68183319467868FEF797
:10324000FAFC0121386800F0C9FB00BF1037BD4609
:1032500080BD00BF0C04002480B586B000AFF860CC
:10326000B9607A60FB68002B0DD14FF0500372B645
:1032700083F31188BFF36F8FBFF34F8F62B63B614B
:1032800000BF00BFFDE7FB685B687B61154B1B68F7
:103290007A69DA61134B1B687A6992681A62114B7A
:1032A0001A687B699B6818325A600E4B1B6803F1E1
:1032B00018027B699A600B4B1B68FA689A62FB687C
:1032C0001B685A1CFB681A607B68002B02D04FF009
:1032D000FF33BB607968B86800F080FB00BF183727
:1032E000BD4680BD0C04002480B58AB000AF786074
:1032F0007B68DB68DB683B623B6A002B0DD14FF0DB
:10330000500372B683F31188BFF36F8FBFF34F8FF3
:1033100062B6FB6000BF00BFFDE73B6A9B6AFB61D2
:103320003B6ADB693A6A126A9A603B6A1B6A3A6ACC
:10333000D2695A60FB695A683B6A18339A4203D1D2
:103340003B6A1A6AFB695A603B6A00229A62FB690F
:103350001B685A1EFB691A604B4B1B68002B62D11D
:103360003B6A5B697B613B6A9B683A6AD2689A6098
:103370003B6ADB683A6A92685A607B695A683B6AC2
:1033800004339A4203D13B6ADA687B695A603B6A2C
:1033900000225A617B691B685A1E7B691A603B6A6E
:1033A000DB6A01229A40394B1B681343374A13608A
:1033B0003B6ADA6A364913469B0013449B000B4470
:1033C00004331B683B613B6A3A699A603B699A68BF
:1033D0003B6ADA603B699B683A6A04325A603B6A2E
:1033E0001A1D3B699A603B6ADA6A13469B001344D4
:1033F0009B00274A1A443B6A5A613B6ADA6A2449AD
:1034000013469B0013449B000B441B683A6AD26A24
:10341000591C1F4813469B0013449B00034419602A
:1034200000F0F8F91BE01B4B5B68BB613B6ABA69B3
:10343000DA61BB699A683B6A1A62BB699B683A6A3F
:1034400018325A603B6A03F11802BB699A603B6A02
:10345000104A9A620F4B1B6801330E4A13603B6A95
:10346000DA6A0D4B1B68DB6A9A4205D901237B623D
:103470000A4B01221A6001E000237B627B6A184636
:103480002837BD4680BD00BF280700240807002458
:1034900010040024C00600240C0400241407002497
:1034A00080B483B000AF7860064B1A687B681A60FE
:1034B000054B1A687B685A6000BF0C37BD4680BC5C
:1034C000704700BF180700240407002480B588B0A7
:1034D00000AF786039607B68002B0DD14FF050034E
:1034E00072B683F31188BFF36F8FBFF34F8F62B64D
:1034F0003B6100BF00BFFDE73B68002B0DD14FF0E3
:10350000500372B683F31188BFF36F8FBFF34F8FF1
:1035100062B6FB6000BF00BFFDE700F0DBFE1F4BA3
:103520001B68BB617B685B68BA69D31A7B613B68C7
:103530001B68B3F1FF3F02D10023FB6126E07B68EB
:103540001A68174B1B689A420AD07B685B68BA6995
:103550009A4205D30123FB613B6800221A6015E003
:103560003B681B687A699A420BD23B681A687B6990
:10357000D21A3B681A607868FFF792FF0023FB615C
:1035800004E03B6800221A600123FB6100F0D6FED4
:10359000FB6918462037BD4680BD00BF04070024E4
:1035A0001807002480B400AF034B01221A6000BF4B
:1035B000BD4680BC704700BF1407002480B584B0AE
:1035C00000AF786000F0B2F8194B1B68012B07D9E7
:1035D000184B4FF080521A60BFF34F8FBFF36F8FBD
:1035E000FFF792FAF860FB68012BEBD9FFF77EFA40
:1035F000114B1A68114B1B689A420DD24FF05003C1
:1036000072B683F31188BFF36F8FBFF34F8F62B62B
:10361000BB6000BF00BFFDE7FFF776FAF860FB680C
:10362000012B02D9F86800F013FFFFF7A9FAC9E7E8
:103630001004002404ED00E0200700240407002407
:1036400080B483B000AF01233B600123FB71124BB8
:103650001B68002B02D00023FB7117E00F4B1B6887
:10366000002B02D00023FB7110E00D4B1B68002BD8
:1036700002D00023FB7109E00A4B1A680A4B196853
:103680003B68CB1A9A4201D10223FB71FB791846A1
:103690000C37BD4680BC7047C006002414070024C8
:1036A00010070024EC0600240007002480B582B037
:1036B00000AF00237B600CE07A6813469B00134444
:1036C0009B00124A13441846FEF767FA7B680133E1
:1036D0007B607B681F2BEFD90D48FEF75EFA0D4823
:1036E000FEF75BFA0C48FEF758FA0C48FEF755FA5D
:1036F0000B48FEF752FA0B4B054A1A600A4B054A73
:103700001A6000BF0837BD4680BD00BF100400240A
:1037100090060024A4060024C0060024D406002439
:10372000EC060024B8060024BC06002480B582B054
:1037300000AF19E000F0CEFD104BDB68DB687B606A
:103740007B6804331846FEF7AEFA0D4B1B68013B4D
:103750000B4A13600B4B1B68013B0A4A136000F0D5
:10376000EDFD786800F046F8064B1B68002BE1D1B0
:1037700000BF00BF0837BD4680BD00BFD40600248F
:1037800000070024E806002480B485B000AF78600C
:103790000023FB6005E07B6801337B60FB6801333D
:1037A000FB607B681B78A52BF5D0FB689B08FB6052
:1037B000FB6818461437BD4680BC704780B586B09C
:1037C00000AF78607B68002B03D1094B1B687B61DD
:1037D00001E07B687B617B691B6B3B613869FFF7AC
:1037E000D3FFF860FB6818461837BD4680BD00BFA0
:1037F0000C04002480B582B000AF78607B681B6B3E
:10380000184601F069F8786801F066F800BF0837DB
:10381000BD4680BD80B400AF094B1B681B68002B00
:1038200004D1084B4FF0FF321A6005E0044B1B68CF
:10383000DB681B68034A136000BFBD4680BC70474D
:10384000B80600242007002480B483B000AF0B4BDF
:103850001B68002B02D101237B6008E0084B1B682A
:10386000002B02D102237B6001E000237B607B6898
:1038700018460C37BD4680BC704700BF0C070024BB
:103880002807002480B588B000AF78607B68BB61F2
:103890000023FB617B68002B00F094804C4B1B687D
:1038A000BA699A420DD04FF0500372B683F3118873
:1038B000BFF36F8FBFF34F8F62B63B6100BF00BF96
:1038C000FDE7BB691B6D002B0DD14FF0500372B6A5
:1038D00083F31188BFF36F8FBFF34F8F62B6FB6026
:1038E00000BF00BFFDE7BB691B6D5A1EBB691A65AF
:1038F000BB69DA6ABB69DB6C9A4263D0BB691B6D3A
:10390000002B5FD1BB6904331846FEF7CCF90346A0
:10391000002B0AD1BB69DB6A012202FA03F3DA4306
:103920002C4B1B6813402B4A1360BB69DA6CBB69D4
:10393000DA62BB69DB6AC3F12002BB699A61BB69C9
:10394000DB6A01229A40234B1B681343214A136010
:10395000BB69DA6A204913469B0013449B000B4461
:1039600004331B687B61BB697A699A607B699A68DA
:10397000BB69DA607B699B68BA6904325A60BB69CB
:103980001A1D7B699A60BB69DA6A13469B0013446F
:103990009B00114A1A44BB695A61BB69DA6A0E4935
:1039A00013469B0013449B000B441B68BA69D26A00
:1039B000591C094813469B0013449B00034419609B
:1039C0000123FB61FB6918462037BD4680BD00BF5F
:1039D0000C040024080700241004002480B588B0DB
:1039E00000AF78603960374B1B68FB61364B1B6852
:1039F000BB61364B1B687B61354B1B680433184633
:103A0000FEF751F90346002B0BD1314B1B68DB6AE3
:103A1000012202FA03F3DA432E4B1B6813402D4AAE
:103A200013607B68B3F1FF3F24D13B68002B21D0AA
:103A3000294B5B683B61264B1B683A699A60244BB3
:103A40001B683A699268DA60214B1A683B699B6887
:103A500004325A601E4B1B681A1D3B699A601C4B4E
:103A60001B681D4A5A611C4B1B6801331A4A1360BC
:103A700000BF22E0FA697B681344FB60144B1B68AB
:103A8000FA685A60FA68FB699A4207D2104B1B68C1
:103A9000043319467869FEF7CEF80EE00C4B1B682C
:103AA00004331946B869FEF7C6F80C4B1B68FA6870
:103AB0009A4202D2094AFB68136000BF2037BD4614
:103AC00080BD00BF04070024B8060024BC06002403
:103AD0000C04002408070024EC060024200700241E
:103AE00080B584B002AF00237B6000F05FFA134B17
:103AF0001B68002B0BD0124B01931F230093002354
:103B00004FF482720F491048FEF72BFD78607B68F6
:103B1000002B0DD14FF0500372B683F31188BFF321
:103B20006F8FBFF34F8F62B63B6000BF00BFFDE7F2
:103B30007B6818460837BD4680BD00BF6407002477
:103B400068070024F0FE0408F13B000880B584B04B
:103B500000AFF860B9607A6008E0FB689B69BA68FA
:103B60001344BB60FB681B6AF8689847FB689A6956
:103B7000BB68D118BB687A68F86800F0DDF80346C6
:103B8000002BEAD100BF00BF1037BD4680BD00004A
:103B900080B584B000AF78603960144B1B68DB6877
:103BA000DB68FB60FB6804331846FEF77CF8FB68B3
:103BB00093F8283003F00403002B05D03A687968A5
:103BC000F868FFF7C3FF08E0FB6893F8283023F09C
:103BD0000103DAB2FB6883F82820FB681B6AF868E7
:103BE000984700BF1037BD4680BD00BF5C0700246A
:103BF00080B584B000AF786007F10803184600F084
:103C000059F8F860BB681946F86800F005F800F04C
:103C1000D5F800BFF0E7000080B584B000AF786051
:103C20003960FEF763FF07F10803184600F064F8F7
:103C3000F860BB68002B31D13B68002B0AD17A6851
:103C4000FB689A4206D8FEF79BFFF9687868FFF791
:103C50009FFF25E03B68002B09D0134B1B681B68B6
:103C6000002B02D101233B6001E000233B600F4B9E
:103C700018687A68FB68D31A3A681946FEF788FB19
:103C8000FEF77EFF0346002B0AD1094B4FF080520E
:103C90001A60BFF34F8FBFF36F8F01E0FEF770FF25
:103CA00000BF1037BD4680BD6007002464070024B4
:103CB00004ED00E080B485B000AF78600D4B1B6868
:103CC0001B68002B01D1012200E000227B681A60F2
:103CD0007B681B68002B05D1064B1B68DB681B68E3
:103CE000FB6001E00023FB60FB6818461437BD460B
:103CF00080BC70475C07002480B584B000AF78605A
:103D0000FFF748F8F8600B4B1B68FA689A4205D237
:103D100000F026F97B6801221A6002E07B6800222D
:103D20001A60044AFB681360FB6818461037BD46EA
:103D300080BD00BF6C07002480B586B000AFF8607E
:103D4000B9607A603B6000237B61FB68BA685A60A7
:103D5000FB68FA681A61BA687B689A4212D87A6876
:103D60003B68D21AFB689B699A4202D301237B61AC
:103D70001BE0104B1A68FB68043319461046FDF728
:103D80005AFF12E07A683B689A4206D2BA683B68EA
:103D90009A4202D301237B6107E0074B1A68FB6854
:103DA000043319461046FDF746FF7B69184618375D
:103DB000BD4680BD600700245C07002480B588B044
:103DC00000AF07F1080300221A605A609A60B3E05E
:103DD000BB68002BC0F2B0803B69FB61FB695B698B
:103DE000002B04D0FB6904331846FDF75CFF3B1D34
:103DF0001846FFF781FFB861BB68092B5CD0092B1F
:103E000000F39780082B4DD0082B00F39280072BEE
:103E100000F38F80062B11DA052B75D0052B00F3EC
:103E20008880042B48D0042B00F38380022B02DC13
:103E3000002B03DC7DE0032B34D07AE0FB6993F8A0
:103E4000283043F00103DAB2FB6983F82820FA68CE
:103E5000FB699B69D118FB68BA69F869FFF76CFFC9
:103E60000346002B67D0FB6993F8283003F0040366
:103E7000002B09D0FA68FB699B691344BA6919469B
:103E8000F869FFF763FE08E0FB6993F8283023F038
:103E90000103DAB2FB6983F82820FB691B6AF86921
:103EA000984748E0FB6993F8283023F00103DAB221
:103EB000FB6983F828203FE0FB6993F8283043F042
:103EC0000103DAB2FB6983F82820FA68FB699A617A
:103ED000FB699B69002B0DD14FF0500372B683F341
:103EE0001188BFF36F8FBFF34F8F62B67B6100BF46
:103EF00000BFFDE7FB699A69BB69D118BB69BA6964
:103F0000F869FFF719FF17E0FB6993F8283003F011
:103F10000203002B03D1F86900F0DEFC0CE0FB6922
:103F200093F8283023F00103DAB2FB6983F82820E4
:103F300002E000BF00E000BF084B1B6807F108016A
:103F400000221846FDF7E6FF0346002B7FF440AF42
:103F500000BF00BF2037BD4680BD00BF64070024FE
:103F600080B582B000AF09E00E4B1B68DB681B68B0
:103F70003B604FF0FF313868FFF70AFE094B1B68C2
:103F80001B68002BF0D1074B1B687B60064B1B683E
:103F9000044A1360044A7B68136000BF0837BD46BB
:103FA00080BD00BF5C0700246007002480B500AF1F
:103FB00000F090F9124B1B68002B1DD11148FDF742
:103FC000ECFD1148FDF7E9FD104B0E4A1A60104B4D
:103FD0000D4A1A6000220C210520FDF723FF03463D
:103FE000074A1360064B1B68002B05D0044B1B6867
:103FF00008491846FEF77CF900F0A0F900BF80BD23
:104000006407002434070024480700245C070024C8
:1040100060070024F8FE040880B485B000AFF860A3
:10402000B9607A60FB68043BFB60FB684FF080720C
:104030001A60FB68043BFB60BB6823F00102FB686D
:104040001A60FB68043BFB600C4AFB681A60FB6863
:10405000143BFB607A68FB681A60FB68043BFB60FA
:10406000FB686FF002021A60FB68203BFB60FB6894
:1040700018461437BD4680BC704700BF8140000819
:1040800080B485B000AF00237B60144B1B68B3F194
:10409000FF3F0DD04FF0500372B683F31188BFF38A
:1040A0006F8FBFF34F8F62B6FB6000BF00BFFDE7AD
:1040B0004FF0500372B683F31188BFF36F8FBFF3D5
:1040C0004F8F62B6BB6000BF00BF7B68002BFCD087
:1040D00000BF00BF1437BD4680BC704704000024F9
:1040E000074B19680868B0E8F04F80F30988BFF300
:1040F0006F8F4FF0000080F311887047AFF300809E
:104100000C04002400BF00BF08480068006880F36A
:1041100008884FF0000080F3148862B661B6BFF3E0
:104120004F8FBFF36F8F00DF00BF000008ED00E08E
:1041300000BF00BF80B58AB000AF5C4B1B687B62DC
:104140007B6A2C331B685A4A93420DD04FF05003C0
:1041500072B683F31188BFF36F8FBFF34F8F62B6D0
:10416000BB6100BF00BFFDE77B6A38331B68514A63
:1041700093420DD04FF0500372B683F31188BFF312
:104180006F8FBFF34F8F62B6FB6100BF00BFFDE7CB
:104190000023BB60484B3B623B6A1B78DBB2FB737E
:1041A0003B6AFF221A703B6A1B78DBB2FB71FB791A
:1041B000DBB203F05003DAB2404B1A703F4B1B786E
:1041C000002B0DD14FF0500372B683F31188BFF36B
:1041D0006F8FBFF34F8F62B67B6100BF00BFFDE7FB
:1041E000FB79DBB2DB4303F05003002B15D04FF01B
:1041F000500372B683F31188BFF36F8FBFF34F8FF5
:1042000062B63B6100BF00BFFDE7BB680133BB6026
:10421000FB79DBB25B00DBB2FB71FB79DBB203F055
:104220008003802BF1D0BB68082B03D1244B0022E4
:104230001A6004E0BB68C3F10703214A1360204BF6
:104240001B681B021E4A13601D4B1B6803F4E063CE
:104250001B4A1360FB7BDAB23B6A1A70194B1B686E
:10426000184A43F47F031360164B1B68154A43F04A
:104270007F431360144B00221A6000F0B3F9134B14
:1042800000221A6000F0DEF9114B1B68104A43F05F
:1042900040431360FFF738FFFEF712FFFFF7F0FE11
:1042A000002318462837BD4680BD00BF08ED00E05A
:1042B000E1400008A143000800E400E07C0700247E
:1042C0008007002420ED00E01CED00E00400002445
:1042D00034EF00E080B483B000AF4FF0500372B60B
:1042E00083F31188BFF36F8FBFF34F8F62B67B608C
:1042F00000BF104B1B6801330E4A13600D4B1B6847
:10430000012B12D10C4B1B68DBB2002B0DD04FF0F0
:10431000500372B683F31188BFF36F8FBFF34F8FD3
:1043200062B63B6000BF00BFFDE700BF0C37BD4673
:1043300080BC70470400002404ED00E080B483B02A
:1043400000AF134B1B68002B0DD14FF0500372B61A
:1043500083F31188BFF36F8FBFF34F8F62B67B601B
:1043600000BF00BFFDE70A4B1B68013B084A136012
:10437000074B1B68002B05D100233B603B6883F390
:10438000118800BF00BF0C37BD4680BC704700BF1E
:1043900004000024000000000000000000000000F5
:1043A000EFF30980BFF36F8F154B1A681EF0100FE3
:1043B00008BF20ED108A20E9F04F106009B44FF0DB
:1043C000500072B680F31188BFF34F8FBFF36F8F29
:1043D00062B6FEF775FE4FF0000080F3118809BC4D
:1043E00019680868B0E8F04F1EF0100F08BFB0EC75
:1043F000108A80F30988BFF36F8F7047AFF3008096
:104400000C04002400BF00BF80B582B000AF4FF0A5
:10441000500372B683F31188BFF36F8FBFF34F8FD2
:1044200062B67B6000BFFEF72FFD0346002B03D072
:10443000064B4FF080521A6000233B603B6883F3C9
:10444000118800BF00BF0837BD4680BD04ED00E005
:1044500080B588B000AF78605B4B1B687A689A4281
:1044600002D9594B1B687B6072B6BFF34F8FBFF305
:104470006F8FFFF7E5F80346002B01D162B69EE08F
:10448000524B06221A60524B1B687B617B69002BE2
:1044900002D1504B1B687B617B68013B4D4A12681F
:1044A00002FB03F37A691344FB614B4B1B6803F077
:1044B0008063002B08D0484B4FF000721A60454BC8
:1044C0001B68FA69D31AFB61444B1B68FA699A426C
:1044D00004D9424B1B68FA69D31AFB61404AFB6955
:1044E00013603B4B00221A60384B1B68374A43F07D
:1044F000010313607B68FB60FB68002B04D0BFF3F3
:104500004F8F30BFBFF36F8F62B6BFF34F8FBFF3D4
:104510006F8F72B6BFF34F8FBFF36F8F2B4B062297
:104520001A602A4B1B6803F48033002B1DD0294BE3
:104530001A68274B1968FB69CB1A1344013B3B618E
:10454000264B1B683A699A4204D9224B1B683A6988
:104550009A4203D91F4B1B68013B3B61204A3B69D0
:1045600013607B68013BBB611AE0194B1B687B61E0
:10457000184B1B687A6803FB02F27B69D31ABB6095
:10458000144B1B68BA68B2FBF3F3BB61BB69013320
:10459000104A126803FB02F21149BB68D31A0B6080
:1045A0000B4B00221A60094B07221A60094B1B684B
:1045B0000B4A013B1360B869FEF704FC62B600BF0A
:1045C0002037BD4680BD00BF7407002410E000E026
:1045D00018E000E07007002404ED00E078070024F4
:1045E00014E000E080B400AF0E4B0F4A1A600D4B90
:1045F0001B686FF07F42B2FBF3F30C4A13600C4B65
:104600005E221A600B4B00221A600B4B00221A60CC
:104610000A4B0B4A1A60074B07221A6000BFBD46BF
:1046200080BC704770070024C0270900740700246D
:104630007807002410E000E018E000E014E000E05B
:10464000BF270900DFF80C00016841F47001016028
:104650007047000088ED00E000BF00BF80B58EB05D
:1046600000AF78600023FB627B68002B22D0082318
:10467000DB437A689A421BD808227B6813447B602C
:104680007B6803F00703002B14D07B6803F007035B
:10469000C3F10803BB62BB6ADB437A689A4204D861
:1046A0007A68BB6A13447B6004E000237B6001E00E
:1046B00000237B60FEF71AFA804B1B68002B01D1A8
:1046C00000F09AF97B68002BC0F2DE807B68002B3B
:1046D00000F0DA807A4B1B687A689A4200F2D48044
:1046E000784B3B63774B1B687B637B6B764A9342CB
:1046F00005D37B6B754A934201D8012300E0002368
:10470000002B2DD14FF0500372B683F31188BFF305
:104710006F8FBFF34F8F62B63B6200BF00BFFDE7F4
:104720007B6B3B637B6B1B687B637B6B664A934253
:1047300005D37B6B654A934201D8012300E0002337
:10474000002B0DD14FF0500372B683F31188BFF3E5
:104750006F8FBFF34F8F62B6FB6100BF00BFFDE7F5
:104760007B6B5B687A689A4203D97B6B1B68002B72
:10477000D6D1524B1B687A6B9A4200F085803B6B16
:104780001B6808221344FB62FB6A4F4A934205D31D
:10479000FB6A4E4A934201D8012300E00023002B1C
:1047A0000DD14FF0500372B683F31188BFF36F8FB2
:1047B000BFF34F8F62B6BB6100BF00BFFDE77B6BED
:1047C0001A683B6B1A607B6B5B687A689A420DD9FA
:1047D0004FF0500372B683F31188BFF36F8FBFF3AE
:1047E0004F8F62B67B6100BF00BFFDE77B6B5A68ED
:1047F0007B68D21A08235B009A4226D97A6B7B68C1
:1048000013447B627B6A03F00703002B0DD04FF04B
:10481000500372B683F31188BFF36F8FBFF34F8FCE
:1048200062B63B6100BF00BFFDE77B6B5A687B68E7
:10483000D21A7B6A5A607B6B7A685A603B6B1A6843
:104840007B6A1A603B6B7A6A1A601D4B1A687B6B35
:104850005B68D31A1A4A1360194B1A681C4B1B6801
:104860009A4203D2164B1B68194A13607B6B5B6834
:1048700043F000427B6B5A607B6B00221A60154B41
:104880001B680133134A1360FEF77AF9FB6A03F0E1
:104890000703002B0DD04FF0500372B683F311883D
:1048A000BFF36F8FBFF34F8F62B6FB6000BF00BFD7
:1048B000FDE7FB6A18463837BD4680BD8C070124EA
:1048C000900701248407012484070024830701241E
:1048D000940701249807012480B588B000AF786060
:1048E0007B68FB617B68002B66D008235B42FA691A
:1048F0001344FB61FB69BB61BB69314A934205D339
:10490000BB69304A934201D8012300E00023002B09
:104910000DD14FF0500372B683F31188BFF36F8F40
:10492000BFF34F8F62B67B6100BF00BFFDE7BB697D
:104930005B68002B0DDB4FF0500372B683F31188D8
:10494000BFF36F8FBFF34F8F62B63B6100BF00BFF5
:10495000FDE7BB691B68002B0DD04FF0500372B60A
:1049600083F31188BFF36F8FBFF34F8F62B6FB6085
:1049700000BF00BFFDE7BB695B68002B1CDABB69A9
:104980001B68002B18D1BB695B6823F00042BB6930
:104990005A60FEF7ABF8BB695A680B4B1B681344AF
:1049A000094A1360B86900F081F8084B1B680133AD
:1049B000064A1360FEF7E4F800BF2037BD4680BD0D
:1049C0008407002483070124900701249C07012405
:1049D00080B400AF024B1B681846BD4680BC7047D0
:1049E0009007012480B400AF024B1B681846BD46F7
:1049F00080BC70479407012480B485B000AF4FF4A9
:104A00008033BB60244BFB60FB6803F00703002B83
:104A10000CD0FB680733FB60FB6823F00703FB60E7
:104A2000BA68FB68D31A1C4A1344BB60FB681B4A74
:104A300013601A4B00225A60FA68BB6813447B600B
:104A400008227B689B1A7B607B6823F007037B60EE
:104A50007B68134A1360124B1B6800225A60104B8C
:104A60001B6800221A60FB683B603B687A68D21AB8
:104A70003B685A600A4B1A683B681A603B685B687F
:104A8000084A13603B685B68074A136000BF14372D
:104A9000BD4680BC704700BF840700248407012402
:104AA0008C070124940701249007012480B487B067
:104AB00000AF7860374B7B6102E07B691B687B61EC
:104AC0007B691B687A689A42F7D87B69314A9342BE
:104AD0001AD07B69304A934205D37B692F4A9342AF
:104AE00001D8012300E00023002B0DD14FF050032B
:104AF00072B683F31188BFF36F8FBFF34F8F62B627
:104B0000FB6000BF00BFFDE77B693B617B695B68C1
:104B10003A6913447A689A4208D17B695A687B687B
:104B20005B681A447B695A607B697B607B683B6188
:104B30007B685B683A691A447B691B689A4218D1A2
:104B40007B691A68164B1B689A420DD07B685A68BD
:104B50007B691B685B681A447B685A607B691B68C9
:104B60001A687B681A6008E00D4B1A687B681A6047
:104B700003E07B691A687B681A607A697B689A42ED
:104B800002D07B697A681A6000BF1C37BD4680BCC2
:104B9000704700BF84070124840700248307012491
:104BA0008C07012480B500AF00F02CF84FF4C84307
:104BB0000E4A0F490F482DF07FF80F482DF03AF8B4
:104BC0000E4B1B881AB20C4B1A800C4B5B881AB226
:104BD000094B5A80084B0A4A5A61074B054ADA606A
:104BE00005482DF085F800BF80BD00BF08D0012426
:104BF00008080124EC070124A0070124BC030024B9
:104C0000114C000880B500AFFCF75CFD00BF80BD13
:104C100090B587B002AFF860B9607A60BB68B3F94D
:104C2000003098B2BB68B3F9023099B2BB68B3F9EF
:104C300004309AB2BB68B3F906309CB27B6800932B
:104C40002346FCF777FEF8682DF0ACF900BF143767
:104C5000BD4690BD80B582B000AF78607B68002B08
:104C600002D12DF02FF978607B68002B01D1002351
:104C700001E07B681B6918460837BD4680BD80B5DA
:104C800082B000AF78607B68002B02D12DF01AF95A
:104C900078607B68002B01D1002301E07B685B69B1
:104CA00018460837BD4680BD80B582B000AF786039
:104CB0007B68002B02D12DF005F978607B68002B12
:104CC00001D1002301E07B68DB6918460837BD4647
:104CD00080BD80B582B000AF78607B68002B02D1C8
:104CE0002DF0F0F878607B68002B01D1002301E003
:104CF0007B681B6A18460837BD4680BD80B582B008
:104D000000AF78607B68002B02D12DF0DBF8786073
:104D10007B689B6818460837BD4680BD80B58CB05F
:104D200000AFF8600B467A60FB72FB68002B01D184
:104D300001232FE0FB683B61FB687B61FB7A3B76DC
:104D40000023FB617B683B6297F8283023F0010366
:104D500087F8283097F8283023F0040387F82830A4
:104D600097F8283023F0020387F828300B4B1B6894
:104D70007B620A4A07F11003136007F1100318461B
:104D800000F0C8F9034687F82F307B6A034A1360A6
:104D900097F82F3018463037BD4680BD089802245A
:104DA00080B584B000AF786039607B68002B04D197
:104DB0003B685B681B68FB6006E07B681B68FB6008
:104DC00002E0FB681B68FB60FB68002B03D0FB68FC
:104DD0001B69002BF5D0FB68002B01D1012319E0E2
:104DE000FB681B69002B01D1012313E03B68002203
:104DF000DA60FB681B693968F86898470123FB7221
:104E00003B681B7E03F00103DBB2002B01D00023C3
:104E1000FB72FB7A18461037BD4680BD80B483B064
:104E200000AF78607B681B6818460C37BD4680BCB5
:104E3000704780B483B000AF78607B685B681846C9
:104E40000C37BD4680BC704780B483B000AF78603B
:104E50007B681B7A03F07F03DBB218460C37BD4634
:104E600080BC704780B483B000AF78607B681B69FA
:104E700018460C37BD4680BC704780B483B000AF85
:104E800078607B68DB6818460C37BD4680BC70478D
:104E900080B485B000AF78600F4B1B68FB6011E0F9
:104EA000FB685B687A689A4204D0FB681B687A6882
:104EB0009A4204D1FA68137E43F001031376FB682B
:104EC0005B69FB60FB68002BEAD100BF00BF1437B1
:104ED000BD4680BC704700BF0898022490B585B0DD
:104EE00000AFF860B9603B601346FB71F86809F0E9
:104EF000A1FBFB689B689A7E0132D2B29A76FB686E
:104F00009B68DA68FB689B689B7E19460B465B00D2
:104F10000B449B001946FB689C6810462FF06AF909
:104F20000346E360FB689B68DB68002B01D100BF90
:104F3000FDE7FB689B68DA68FB689B689B7E194607
:104F40000B465B000B449B000C3B1344BA681A6091
:104F5000FB689B68DA68FB689B689B7E19460B467A
:104F60005B000B449B000C3B1344FA791A72FB68FC
:104F70009B68DA68FB689B689B7E19460B465B0062
:104F80000B449B000C3B13443A685A60FB689B68D7
:104F9000DA68FB689B689B7E19460B465B000B44F6
:104FA0009B000C3B134418461437BD4690BD80B59A
:104FB00082B000AF78607B681B7A012B3BD07B68A6
:104FC0001B7A022B37D07B681B7A032B33D07B688C
:104FD0001B7A042B2FD07B681B7A052B2BD07B6888
:104FE0001B7A062B27D07B681B7A072B23D07B6884
:104FF0001B7A082B1FD07B681B7A092B1BD07B6880
:105000001B7A0A2B17D07B681B7A0B2B13D07B687B
:105010001B7A0C2B0FD07B681B7A0D2B0BD07B6877
:105020001B7A0E2B07D07B681B7A0F2B03D07B6873
:105030001B7A102B04D17868FFF714FF034600E0B9
:10504000002318460837BD4680BD80B582B000AF4A
:1050500078607B681B7A152B13D07B681B7A142B26
:105060000FD07B681B7A162B0BD07B681B7A182B12
:1050700007D07B681B7A172B03D07B681B7A192B10
:1050800004D17868FFF7EEFE034600E000231846DF
:105090000837BD4680BD80B584B000AF78600B4650
:1050A0007B807B681B7A132B0ED17868FFF7DAFEC2
:1050B000F860FB68B3F90030B7F902209342B8BF3B
:1050C00013461AB2FB681A8000BF1037BD4680BD78
:1050D00080B483B000AF786039607B689B68002B38
:1050E00001D1002311E07B689B689B7E1A463B68D8
:1050F000934201D3002308E07B689B68D9683A6833
:1051000013465B0013449B000B4418460C37BD4606
:1051100080BC704780B586B000AF786000F030FC8E
:10512000B860BB68002B1FD0BB681B689B68002B56
:1051300008D0BB681B689B68BA6810687A68127AE6
:10514000114698477B681B7E03F00203DBB2002BFD
:1051500001D00123CAE07B681B7E03F00103DBB2B0
:10516000002B01D00023C1E00123FB75FB7D002B48
:1051700007D07B685B6800211846FFF7A9FF3861FC
:1051800001E000233B610023FB6038E03B691B68C2
:10519000002B2AD03B691B7A5BB2002B25DA3B69D6
:1051A0001B7A802B07D03B691B7A23F080037A6837
:1051B000127A934219D13B695A687B68DA603B697D
:1051C0001B68786898477B681B7E03F00203DBB29C
:1051D000002B01D0012389E07B681B7E03F00103D3
:1051E000DBB2002B01D0002380E0FB680133FB60C1
:1051F0007B685B68F9681846FFF76AFF38613B69AE
:10520000002B02D0FB7D012BC0D079680020FFF776
:10521000C7FD0346FB75FB7D002B07D07B685B68F1
:1052200000211846FFF754FF386101E000233B617D
:105230000023FB6036E03B691B68002B28D03B69EC
:105240001B7A5BB2002B23DB3B691B7A002B05D05A
:105250003B691A7A7B681B7A9A4219D13B695A6872
:105260007B68DA603B691B68786898477B681B7EBF
:1052700003F00203DBB2002B01D0012336E07B6890
:105280001B7E03F00103DBB2002B01D000232DE0D5
:10529000FB680133FB607B685B68F9681846FFF7C1
:1052A00017FF38613B69002B02D0FB7D012BC2D078
:1052B000FB7D012B19D17B685B685B68002B14D0E8
:1052C000786800F017F80346002B0ED07B685B6807
:1052D0005A687B685A607868FFF71CFF0346FB75C5
:1052E000FB7D012B01D0002300E0FB7D1846183721
:1052F000BD4680BD80B582B000AF78607B681B7E04
:1053000003F00403DBB2002B01D000232EE07B6806
:105310001B7A233B012B01D8012327E000BF7B68C8
:105320005B684FF48041184609F02BF9034683F07F
:105330000103DBB2002B01D0002317E07B681B7A4E
:105340002C2B10D02C2B10DC2A2B0EDC292B0ADA6C
:10535000242B0ADC212B06DA1B2B02DC112B02DAB0
:1053600003E01E2B01D1002300E00123184608377B
:10537000BD4680BD80B500AF1C2102482EF032FB37
:1053800000BF80BD989A022480B400AF024B1B6816
:105390001846BD4680BC70470C98022480B586B084
:1053A00000AF786039607B68002B51D07B6818466D
:1053B0002EF016FC78610AE07B691B683A689A4215
:1053C00048D07B68796918462EF02AFC78617B69A1
:1053D000002BF1D1386809F01BF938613B69002BCB
:1053E0000FD03B689B689B68002B0AD03B689B688A
:1053F0009B68DB681B683A689A4202D1386900F002
:105400003CF93B689B68002B02D1386809F012F91F
:105410003B689B687A689A607B6818462EF02EFB82
:10542000F860FB68002B01D100BFFDE7FB68002B93
:1054300012D0FB683A681A607B6818462EF0D0FBE1
:105440000246FB68934208D1786800F016F904E040
:1054500000BF02E000BF00E000BF1837BD4680BDBE
:1054600090B585B000AF7860786809F0D1F8B86081
:10547000BB68002B6AD0BB68DB68002B33D0BB68ED
:10548000DB681B687A689A422DD1BB681B7E03F0EB
:105490000103DBB2002B04D0BA68137E23F00103B2
:1054A0001376BB6818462EF09BFB0246BB68DB6890
:1054B0009A4215D1BB6818462EF0A2FB0246BB6883
:1054C000DB689A420CD1BB68DB681C68B86800F0E6
:1054D000D8F903461A460F212046FFF71FFC02E0C9
:1054E000B86800F0CAF8BB68DB68002B08D0BB685E
:1054F000DB681B687A689A4202D1BB680022DA60D6
:10550000BB6818462EF06CFBF8601BE0FB681B685C
:105510007A689A4210D1BB68F96818462EF0E2FA10
:10552000F8682EF04BFE7B689B68002B10D07B68E0
:105530009B6800229A600BE0BB68F96818462EF061
:105540006FFBF860FB68002BE0D102E000BF00E0D9
:1055500000BF1437BD4690BD80B582B000AF786003
:10556000044A0549786800F0B9F800BF0837BD461D
:1055700080BD00BF213C0308E13B030880B582B039
:1055800000AF7860044A0549786800F0A7F800BFCA
:105590000837BD4680BD00BF493C0308013C0308F5
:1055A00090B587B000AF78600B46FB707B68002B2E
:1055B0002FD0FB78FB757B681B7EC3F34003DBB207
:1055C0001A46FB7D934226D0FB7D03F00103D9B23E
:1055D0007A68137E61F341031376786800F021F84E
:1055E00038613B69002B19D07B68DB681C687868E0
:1055F00000F047F903461A460E212046FFF78EFBBE
:105600000346FB73FB7B012B07D1386903F0C9FB11
:1056100004E000BF02E000BF00E000BF1C37BD4651
:1056200090BD80B483B000AF78607B68002B01D15F
:10563000002308E07B68DB68002B01D1002302E037
:105640007B68DB681B6818460C37BD4680BC70471A
:1056500080B483B000AF78607B68002B01D1002359
:1056600006E07B681B7E5B08DBB203F00103DBB264
:1056700018460C37BD4680BC704780B584B000AF7B
:1056800078607B681B7EC3F3C003DBB2FB737A6870
:10569000137E43F0080313767B681B7E03F004033C
:1056A000DBB2002B03D17868FFF756FF09E07B6877
:1056B0001B7E03F00403DBB2002B02D07868FFF7F7
:1056C0005DFFFB7B03F00103D9B27A68137E61F3BF
:1056D000C303137600BF1037BD4680BD90B58BB0B5
:1056E00000AFF860B9607A60FB681B7E03F00103CD
:1056F000DBB2002B40F0B380FB68DB687B620023E9
:105700003B620123FB770123BB777B6A002B1AD115
:10571000FB681B7E03F00803DBB2002B03D13B6A5E
:10572000002B40F09E80BB7F83F00103DBB2002B97
:1057300040F09980FA68BB68104698477862002369
:10574000FB770023BB773B6A002B05D17B6A3B626A
:105750003B6A002B00F08980FB7F002B09D0FA68A0
:105760007B68796A1046984778627A6A3B6A9A42FF
:105770007DD00123FB777B6A002B28D07B6A1B68D6
:10578000184608F025FF034603F08003002B20D1C4
:105790007B6A1B68BB610AE00121B86908F0F1FE71
:1057A0000346002B07D1B86908F0FEF9B861BB6960
:1057B000002BF1D100E000BFBB69002B0BD0012111
:1057C000B86908F0DEFE0346002B04D002E000BFFB
:1057D0009BE700BF99E700BFFB68DB687A6A9A42E3
:1057E00047D0FB68DB68002B16D0FB68DB681C68C1
:1057F000F86800F046F803461A460F212046FFF7E6
:105800008DFA0346FB75FB7D012B34D1FB68DB6809
:105810001B68184603F0C5FAFB687A6ADA60FB6811
:10582000DB681C68F86800F02CF803461A460E2165
:105830002046FFF773FA0346BB75BB7D012B1CD1D5
:10584000FB68DB681B68184603F0ABFAFB681B6952
:10585000002B13D0FB681B69F86898470EE000BF67
:105860000CE000BF0AE000BF08E000BF06E000BF98
:1058700004E000BF02E000BF00E000BF2C37BD46DF
:1058800090BD80B586B000AF786000237B610023B7
:105890003B6100202CF0BCFBF86019E0F86800F0D8
:1058A00079F80346FB72FB681B6D7A689A420BD14C
:1058B000FB7A022B01D1FB681BE0FB7A042B01D1A0
:1058C000FB687B61FB683B61F8682CF0A1FBF8602A
:1058D000FB68002BE2D17B69002B01D07B6908E0DB
:1058E0003B69002B01D03B6903E000202CF090FBCA
:1058F000034618461837BD4680BD000080B485B009
:1059000000AF78600B46FB707B68002B01D1002351
:105910002FE0FB78032B05D00C2B07D17B685B8C29
:10592000FB8105E07B681B8CFB8101E0002320E00C
:105930007B681B685B7E7B810023BB8113E0BA8997
:10594000FB8913449BB2BB81B7F90E30B7F90A202B
:10595000C2F1640202FB03F3084A82FB03125211F4
:10596000DB17D31AFB81B7F90E30002BE7D1B7F95B
:105970000C3018461437BD4680BC70471F85EB516C
:1059800080B400AF024B1B681846BD4680BC704710
:105990001098022480B483B000AF78607B68002B3D
:1059A00001D1002302E07B681B681B7818460C3786
:1059B000BD4680BC7047000080B584B000AF786001
:1059C00039607B68002B38D07A68537943F0020342
:1059D00053713B4B1B687A689A4202D1394B0022C3
:1059E0001A607B681B681B78012B04D07B681B68DE
:1059F0001B78022B60D13B68002B04D07B681B6BAB
:105A00003A689A4202D17B6800221A633B68002BF5
:105A100004D07B685B6A3A689A4202D17B680022B4
:105A20005A623B68002B04D07B689B6A3A689A42B2
:105A300042D17B6800229A623EE000202CF0E8FA16
:105A4000F86033E0FA68537943F002035371FB685E
:105A50001B681B78012B04D0FB681B681B78022B8A
:105A600020D13B68002B04D0FB681B6B3A689A423C
:105A700002D1FB6800221A633B68002B04D0FB684C
:105A80005B6A3A689A4202D1FB6800225A623B681C
:105A9000002B04D0FB689B6A3A689A4202D1FB68EB
:105AA00000229A62F8682CF0B3FAF860FB68002BC9
:105AB000C8D1044B00221A6000BF1037BD4680BD1C
:105AC000109802241498022480B582B000AF786048
:105AD0007A68537923F0010353712CF0B1FA02462E
